:100000000C9463010C948B010C948B010C948B0168
:100010000C948B010C948B010C948B010C948B0130
:100020000C948B010C948B010C948B010C948B0120
:100030000C948B010C948B010C948B010C948B0110
:100040000C94F1330C948B010C9485040C94C10432
:100050000C948B010C948B010C948B010C948B01F0
:100060000C948B010C948B01084AD73B3BCE016E5C
:1000700084BCBFFDC12F3D6C74319ABD56833DDAFF
:100080003D00C77F11BED9E4BB4C3E916BAAAABE0E
:10009000000000803F05A84CCDB2D44EB93836A937
:1000A000020C50B9918688083CA6AAAA2ABE000074
:1000B00000803F0664EC1B3C04BC163E3BE5B93CAB
:1000C000C93C37C29E5A3D660498083EEA69AAAA0E
:1000D0003E000000803F2020202020202020004ED5
:1000E0006F206D61762064617461210020202020E2
:1000F0002020202020202020207C202020202020A4
:10010000202020202020207CC620202020202020ED
:100110002020202020C57C202020202020202020DE
:10012000202020207C202020202020202020202073
:1001300020207C0013001400120011001820202041
:100140002020001820209091200016202020202020
:10015000004D696E696D4F53442D4C5220656469A2
:1001600074696F6E0000407A10F35A00A0724E1846
:10017000090010A5D4E80000E87648170000E40B59
:1001800054020000CA9A3B000000E1F5050000801F
:10019000969800000040420F000000A08601000079
:1001A00000102700000000E80300000000640000C9
:1001B0000000000A00000000000100000000002C08
:1001C00076D888DC674F0823DFC1DFAE59E1B1B7CD
:1001D00096E5E3E453C63AE651997696E8E6C2849A
:1001E00026EB898C9B62ED407C6FFCEFBC9C9F40B2
:1001F000F2BAA56FA5F490055A2AF75C936B6CF9D7
:10020000676DC11BFCE0E40D47FEF520E6B500D0AC
:10021000ED902E0300943577050080841E080000C1
:10022000204E0A000000C80C333333330F986E128F
:10023000831141EF8D2114893BE65516CFFEE6DB95
:1002400018D1844B381BF77C1D901DA4BBE42420DF
:100250003284725E228100C9F124ECA1E53D276E53
:10026000616E00696E660000000000240027002A0D
:100270000000000000250028002B000000000023E3
:1002800000260029000404040404040404020202F9
:1002900002020203030303030301020408102040C7
:1002A0008001020408102001020408102000000050
:1002B0000700020100000304060000000000000027
:1002C00000000F05DF2B11241FBECFEFD8E0DEBFEB
:1002D000CDBF14E0A0E0B1E0E4ECF3E702C005908C
:1002E0000D92A437B107D9F716E0A4E7B4E001C036
:1002F0001D92A63CB107E1F712E0C6ECD2E004C0C3
:100300002297FE010E94DC39C23CD107C9F70E9446
:1003100079350C94E0390C940000283008F027E07F
:100320003327DA01990F311D87FD91600096610531
:10033000710539F432602E5F3D9330E32A95E1F781
:1003400008959F3F30F080387105610509F03C5FEA
:100350003C5F3D93913008F08068911DDF93CF930F
:100360001F930F93FF92EF92192F987F9695E92F85
:1003700096959695E90FFF27E154FE4F992733276D
:10038000EE24FF24A701E70105900894079428F4C0
:10039000360FE71EF81E491F511D660F771F881F75
:1003A000991F0694A1F70590079428F4E70EF81E0C
:1003B000491F561FC11D770F881F991F661F06947E
:1003C000A1F70590079428F4F80E491F561FC71F80
:1003D000D11D880F991F661F771F0694A1F70590FE
:1003E000079420F4490F561FC71FD81F990F661F87
:1003F000771F881F0694A9F784911095177041F014
:10040000D695C79557954795F794E7941A95C1F7F0
:10041000E5E6F1E068941590159135916591959117
:1004200005907FE27395E118F10A430B560BC90B57
:10043000D009C0F7E10CF11E431F561FC91FD01D84
:100440007EF4703311F48A95E6CFE894015030F0D1
:10045000080F0AF40027021708F4202F2395022F13
:100460007A3328F079E37D932A95E9F710C07D93DC
:100470002A9589F606949795679537951795179459
:10048000E118F10A430B560BC90BD00998F02395DC
:100490007E9173957A3308F070E37C932013B8F75C
:1004A0007E9170617D9330F0839571E37D9370E36D
:1004B0002A95E1F71124EF90FF900F911F91CF91B2
:1004C000DF91992787FD90950895FA01AA27283092
:1004D00051F1203181F1E8946F936E7F6E5F7F4F11
:1004E0008F4F9F4FAF4FB1E03ED0B4E03CD0670F8D
:1004F000781F891F9A1FA11D680F791F8A1F911DE0
:10050000A11D6A0F711D811D911DA11D20D009F42F
:1005100068943F912AE0269F11243019305D319371
:10052000DEF6CF010895462F4770405D4193B3E05A
:100530000FD0C9F7F6CF462F4F70405D4A3318F001
:10054000495D31FD4052419302D0A9F7EACFB4E0B2
:10055000A6959795879577956795BA95C9F700976A
:100560006105710508959B01AC010A2E069457950B
:10057000479537952795BA95C9F7620F731F841F62
:10058000951FA01D0895FC01059061507040011059
:10059000D8F7809590958E0F9F1F0895FC016150AC
:1005A000704001900110D8F7809590958E0F9F1F95
:1005B0000895FC011382128288EE93E0A0E0B0E07F
:1005C00084839583A683B7838AE293E091838083B3
:1005D0000895FC018089803419F421E030E002C0E4
:1005E00020E030E0C9010895FC01818990E0089580
:1005F000FC016487458766874787089580E090E01F
:10060000089580E090E0089580E090E008950895D6
:100610001F93CF93DF93EC01162F86E060E00E94DA
:10062000243584EA96E060E00E94C32B112319F080
:10063000113059F404C084EA96E0688904C06889DE
:100640006C6184EA96E00E94C32B86E061E00E9420
:100650002435DF91CF911F910895EF92FF920F9370
:100660001F938EE1489F70011124E60EF11C86E075
:1006700060E00E94243504EA16E0C80165E00E94AB
:10068000C32BC8016F2D0E94C32BC80166E00E94D6
:10069000C32BC8016E2D0E94C32B1F910F91FF9099
:1006A000EF900895EF92FF920F931F937C0104EA5D
:1006B00016E0C80167E00E94C32BC8016FEF0E94DB
:1006C000C32B86E061E00E942435F70187858F5FA8
:1006D00087871F910F91FF90EF900895EF92FF92FF
:1006E0000F931F93FC01E7848EE1E89E70011124B3
:1006F0008685E80EF11C86E060E00E94243504EA5D
:1007000016E0C80164E00E94C32BC80163E00E94A8
:10071000C32BC80165E00E94C32BC8016F2D0E9446
:10072000C32BC80166E00E94C32BC8016E2D0E9436
:10073000C32B1F910F91FF90EF9008951F93CF93BC
:10074000DF93EC01162F6C3731F40E945203CE0177
:100750000E946E030AC084EA96E067E00E94C32B01
:1007600084EA96E0612F0E94C32B81E090E0DF9144
:10077000CF911F9108950F931F9386E060E00E9430
:10078000243504EA16E0C80164E00E94C32BC801C6
:1007900064E00E94C32B86E061E00E9424351F9133
:1007A0000F9108951F9386EB96E066E973E00E942F
:1007B000A932882361F0813011F412E009C082303F
:1007C00011F411E005C0833011F410E001C013E012
:1007D000109275041092740417C0609174047091A3
:1007E0007504605F84EA96E00E94C32B84EA96E079
:1007F000612F0E94C32B809174049091750401961F
:10080000909375048093740480917404909175049E
:1008100040971CF31F910895CF93DF93EC0186E07E
:1008200060E00E94243584EA96E060EA0E94C32BCF
:1008300084EA96E06FEF0E94C32B80FF05C080E43E
:10084000888B88E0898B13C086EB96E060E973E0C3
:100850000E94A932882319F4188A86E003C080E434
:10086000888B88E0898B86E060E00E942435DF91E8
:10087000CF910895CF92DF92FF920F931F936C0157
:1008800086E061E00E94E53482E060E00E94E534A9
:1008900082E061E00E942435C6010E940C0486E0DB
:1008A00060E00E94243504EA16E0C8016CEE0E9464
:1008B000C32BC8016FEF0E94C32BF82EC80160E064
:1008C0000E94C32BF60160896260C8010E94C32B9D
:1008D00062E370E080E090E00E944734C8016CE67B
:1008E0000E94C32BFFEEFF22C8016F2D0E94C32B75
:1008F000C6010E94D203C60161E00E9408031F9155
:100900000F91FF90DF90CF9008951F920F920FB636
:100910000F9211242F933F934F938F939F93EF93B5
:10092000FF934091C6002091A5063091A6062F5F47
:100930003F4F8091A9069091AA06282339238091E0
:10094000A7069091A8062817390779F08091A50687
:100950009091A606E091AB06F091AC06E80FF91F66
:1009600040833093A6062093A506FF91EF919F91B7
:100970008F914F913F912F910F900FBE0F901F902D
:1009800018951F920F920FB60F9211242F933F9339
:100990008F939F93EF93FF932091AF063091B00612
:1009A0008091AD069091AE0628173907E9F0809145
:1009B000AF069091B006E091B306F091B406E80F4F
:1009C000F91F80818093C6008091AF069091B00698
:1009D00001962091B1063091B20682239323909321
:1009E000B0068093AF0610C02091AD063091AE06E0
:1009F0008091AF069091B0062817390729F48091AD
:100A0000C1008F7D8093C100FF91EF919F918F91E5
:100A10003F912F910F900FBE0F901F9018958F92BE
:100A2000AF92CF92EF92FF920F931F9384EF94E0D7
:100A300060E045EC50E024EC30E000EC10E0F1EC3C
:100A4000EF2EF12CCC24C394E8E9AE2E70E2872E71
:100A50000E94192C81E195E00E94D9021F910F910B
:100A6000FF90EF90CF90AF908F90089580912305E5
:100A70008130C1F40E94393468517C4F8F4F9F4FB1
:100A80006093240570932505809326059093270590
:100A90001092230590E080912805882309F491E0C5
:100AA000909328050E943934209124053091250522
:100AB0004091260550912705261737074807590703
:100AC00018F481E0809323050895EF92FF920F932D
:100AD0001F932091AE05253029F48091AF059091A8
:100AE000B00514C0263029F48091B1059091B2056B
:100AF0000DC0273029F48091B3059091B40506C04C
:100B0000283041F48091B5059091B60590938F05FA
:100B100080938E0580910E03882361F490918D055A
:100B20008091B705891719F081E08093B8059093FB
:100B3000B7059FC02430C9F590914505892F86508F
:100B4000823008F496C08091B9058917A1F090937E
:100B5000B9050E9439346093BA057093BB05809340
:100B6000BC059093BD059091B90580910F0398172E
:100B700011F411E001C010E00E9439342091BA054F
:100B80003091BB054091BC055091BD05621B730BB4
:100B9000840B950B615D77408040904008F45BC00A
:100BA0008091450580930F0356C08091BE0520912A
:100BB0008E0530918F05882349F584E0213D380763
:100BC00040F48091B705882321F081E08093B80537
:100BD0004EC0C901815D94408B3E910540F48091E7
:100BE000B705813021F081E08093B8050CC02C5B03
:100BF000354008F43EC08091B7058230D1F181E0E4
:100C00008093B80582E08093B70533C0215B344000
:100C100080F1E090BA05F090BB050091BC05109101
:100C2000BD0588EE93E0A0E0B0E0E80EF91E0A1FD3
:100C30001B1F0E943934E616F70608071907C8F487
:100C40000E9439346093BA057093BB058093BC054C
:100C50009093BD0502C0112361F081E08093B80537
:100C60008091B7058F5F8093B705833010F01092A5
:100C7000B7051F910F91FF90EF900895AF92BF922B
:100C8000CF92DF92EF92FF920F931F938091840592
:100C9000882399F56091940570919505809196054A
:100CA0009091970520E030E040EA50E40E944538FA
:100CB00018161CF580917E058B30F8F081E080934A
:100CC000840580E090E0A0E0B0E08093E10590939F
:100CD000E205A093E305B093E4050E94393428EEC1
:100CE00033E040E050E00E949D3920937505309339
:100CF00076054093770550937805A0909005B090C5
:100D00009105C0909205D0909305C601B50120E0F1
:100D100030E040E85FE30E944538181694F5E09013
:100D2000E105F090E2050091E3051091E4050E94D1
:100D30003934209198063091990640919A06509145
:100D40009B06621B730B840B950B0E941B379B0148
:100D5000AC01C601B5010E94503820E030E04AE7FE
:100D600054E40E9482369B01AC01C801B7010E9485
:100D7000B5356093E1057093E2058093E3059093A8
:100D8000E405A0907A05B0907B05C0907C05D090DA
:100D90007D056091A4057091A505882777FD809554
:100DA000982F0E941D3720E030E040E251E40E947D
:100DB00050387B018C010E94393420919806309183
:100DC000990640919A0650919B06621B730B840B07
:100DD000950B0E941B379B01AC01C801B7010E9413
:100DE000503820E03AEB4BE55AE40E9482369B01F2
:100DF000AC01C601B5010E94B53560937A057093C8
:100E00007B0580937C0590937D050E943934609327
:100E100098067093990680939A0690939B0680910A
:100E20008405813009F098C0609171057091720558
:100E300080917305909174050E941D377B018C0190
:100E40002091ED053091EE054091EF055091F005B0
:100E50000E944538181644F4E092ED05F092EE0534
:100E60000093EF051093F005E0907F05F09080056A
:100E70000091810510918205C801B7012091F1050B
:100E80003091F2054091F3055091F4050E944538E8
:100E9000181644F4E092F105F092F2050093F30580
:100EA0001093F405E0909005F09091050091920563
:100EB00010919305C801B7012091F5053091F60511
:100EC0004091F7055091F8050E944538181644F4F2
:100ED000E092F505F092F6050093F7051093F805FA
:100EE000E0909405F0909505009196051091970576
:100EF000C801B7012091F9053091FA054091FB0531
:100F00005091FC050E944538181644F4E092F9050A
:100F1000F092FA050093FB051093FC05E0903B0569
:100F2000F0903C0500913D0510913E05C801B701C8
:100F30002091FD053091FE054091FF05509100067E
:100F40000E944538181644F4E092FD05F092FE0523
:100F50000093FF05109300061F910F91FF90EF90F3
:100F6000DF90CF90BF90AF90089586EB96E06AE750
:100F700073E00E94A932882349F586E696E6A6E644
:100F8000B0E48093290590932A05A0932B05B09394
:100F90002C0580E090E0A0E8BFE380932D059093BE
:100FA0002E05A0932F05B093300580E18093310585
:100FB0008CE0809332058BE18093330588EE93E0DB
:100FC00090933505809334058AE128C082E598EB3B
:100FD000AEE0B0E48093290590932A05A0932B05F9
:100FE000B0932C0585E89BEEA1E5B0E480932D0538
:100FF00090932E05A0932F05B093300589E180933F
:10100000310586E6809332058CE18093330580EAD2
:1010100094E190933505809334058EE180933605F5
:101020000895CF93DF9386EB96E06CE773E00E9420
:10103000A9328093850586EB96E06EE773E00E9407
:10104000A9328093830586EB96E060E873E00E9406
:10105000A9328093860586EB96E06EE873E00E94E5
:10106000A9328093BE0586EB96E066E773E00E94A6
:10107000A93280938D0586EB96E06AE873E00E94C2
:10108000A9328093AE0586EB96E064E873E00E9497
:10109000A9328093D10586EB96E066E873E00E9462
:1010A000A9328093D00586EB96E06CE873E00E944D
:1010B000A9328093890586EB96E062EA73E00E948C
:1010C000A9328093D50586EB96E064EA73E00E942E
:1010D000A9328093D40586EB96E066EA73E00E941D
:1010E000A9328093D30586EB96E068EA73E00E940C
:1010F000A9328093D70586EB96E062E973E00E94FF
:10110000A9328093870586EB96E064E973E00E943C
:10111000A93280938805C0E0D0E0BE0168567C4FBC
:1011200086EB96E00E94A932FE01EC53FA4F8083D1
:10113000882321F02196C830D10579F7CC53DA4FB6
:101140001982DF91CF910895BC0186EB96E00E9451
:10115000A93208956091490570914A0580914B0527
:1011600090914C0520E030E040EC51E40E94503872
:1011700020E030E044EB53E40E9482360E94B33812
:101180000E94EA369B012350304037FF03C09B0189
:101190002B5E3F4FA5E5B5E0F901E85CFB4F808190
:1011A0008C932F5F3F4F2831310514F020E030E061
:1011B000119685E0A036B80779F710925C0508957E
:1011C0002F923F924F925F926F927F928F929F9257
:1011D000AF92BF92CF92DF92EF92FF920F931F9345
:1011E000DF93CF9300D000D000D0CDB7DEB7182F5B
:1011F000662E20913705309138052A35310530F0BB
:10120000C9018D549F4F89359105E8F437FF02C01D
:101210002D543F4FC90137FF03C0909581959F4FD3
:101220008A3191053CF0B9ED8B2E912CA8EF2A2E36
:10123000312C1DC00A975CF1F0ED8F2E912CE3EF5D
:101240002E2E312C20C02B35310514F0235B30407D
:10125000C90137FF03C0909581959F4F8A31910551
:1012600054F07BEE872E912C6BEF262E312C57E01D
:10127000A52EB12C15C00A9754F042EE842E912C65
:1012800035EF232E312C28E0A22EB12C09C096EC8C
:10129000892E912C8DEC282E312C09E0A02EB12C1A
:1012A0006091390570913A05882777FD8095982FD0
:1012B0000E941D3727EA32E94BE25CEB0E9450386E
:1012C0000E94243920E030E040EA50E40E94503887
:1012D00020E030E040E951E40E9450380E94B338E9
:1012E00020E030E044E352E40E94B5350E94EA3643
:1012F000712EBEEBCB2EBFEFDB2E9B01442737FDBB
:101300004095542F29833A834B835C83A1E14A2E75
:10131000A5E05A2E4AEF5FEF240E351E6091370587
:1013200070913805882777FD8095982F0E941D378A
:1013300025E33AEF4EE85CE30E9450380E942439DE
:101340007B018C01B601882777FD8095982F0E943C
:101350001D379B01AC01C801B7010E9450387B01C9
:101360008C0169817A818B819C810E941D379B0150
:10137000AC01C801B7010E94B5350E94EA369B0155
:10138000CB0101978A35910508F071C062E170E0E8
:101390000E948A398B012F5F3F4FAEEEBFEF6A9FED
:1013A000C0016B9F900D7A9F900D1124820F931FA7
:1013B00062E070E00E948A396D837E83E62CE01A39
:1013C0004E2D4C5F81E195E0672D0E942D0300D0EA
:1013D00000D000D0EDB7FEB73196ADB7BEB71296CC
:1013E0005C924E92119720E031E0338322838D810D
:1013F0009E81880D991D958384830E94F82B4DB79B
:101400005EB74A5F5F4F0FB6F8945EBF0FBE4DBF29
:101410008D819E818A159B0554F1043011053CF5A0
:1014200093E0E90EC201672D4E2D0E942D0300D0DE
:1014300000D000D0EDB7FEB73196ADB7BEB712966B
:101440005C924E92119720E031E0338322834D81EC
:101450005E81420D531D558344830E94F82B8DB746
:101460009EB706960FB6F8949EBF0FBE8DBFACE038
:10147000B0E0CA0EDB1E7394BEE4CB16D10409F0B3
:101480004DCF26960FB6F894DEBF0FBECDBFCF91DD
:10149000DF911F910F91FF90EF90DF90CF90BF9061
:1014A000AF909F908F907F906F905F904F903F9004
:1014B0002F9008959F92AF92BF92CF92DF92EF92BA
:1014C000FF920F931F93882309F481E0880F8257BE
:1014D000613009F06FC0A0902905B0902A05C09036
:1014E0002B05D0902C05E82EFF24E7FCF09490907B
:1014F00031054DB75EB7465150400FB6F8945EBF08
:101500000FBE4DBF0DB71EB70F5F1F4F81E195E0B6
:10151000ADB7BEB712969C938E93119783E091E07E
:10152000F801938382838DE190E095838483C601E3
:10153000B50120913B0530913C0540913D0550910E
:101540003E050E945038D80116966D937D938D9379
:101550009C9319971A969C921A971B961C921B970C
:101560001D96FC92EE921C970894E11CF11C1F96AC
:10157000FC92EE921E97C601B50120913F05309175
:10158000400540914105509142050E945038F801B4
:10159000608B718B828B938B948A158A0E94F82BB7
:1015A0004DB75EB74A5E5F4F0FB6F8945EBF0FBE91
:1015B0004DBF57C0282F332727FD309581E195E097
:1015C000623049F5ADB7BEB71C970FB6F894BEBFF1
:1015D0000FBEADBFEDB7FEB7319612969C938E93BA
:1015E000119789E191E093838283358324832F5F70
:1015F0003F4F37832683809143059091440591871F
:10160000808785E090E0938782870E94F82BEDB772
:10161000FEB73C9621C04DB75EB7485050400FB65C
:10162000F8945EBF0FBE4DBFEDB7FEB73196ADB7B4
:10163000BEB712969C938E93119783E291E09383A9
:101640008283358324832F5F3F4F378326830E9415
:10165000F82BEDB7FEB738960FB6F894FEBF0FBE65
:10166000EDBF1F910F91FF90EF90DF90CF90BF9053
:10167000AF909F9008950F931F93282F462F81E1DD
:1016800095E0622F0E94F80281E195E00E946E03CE
:1016900080914505882319F428E231E038C0813073
:1016A00019F42FE231E033C0823019F426E331E03F
:1016B0002EC02DE331E0833019F42EE331E027C052
:1016C000843019F425E431E022C0853019F42CE48B
:1016D00031E01DC0863019F423E531E018C08730B1
:1016E00019F42AE531E013C08A3019F421E631E01B
:1016F0000EC08B3019F428E631E009C08C3019F4A3
:101700002FE631E004C08F3011F426E731E000D03D
:1017100000D000D0EDB7FEB7319601E115E0ADB7CE
:10172000BEB712961C930E9311978DE791E09383A9
:101730008283358324830E94F82B8DB79EB706964B
:101740000FB6F8949EBF0FBE8DBFC8010E94520312
:101750001F910F9108950F931F93282F462F01E19A
:1017600015E0C801622F0E94F802C8010E946E03B2
:101770008091460560E00E945A0AC8010E94520307
:101780001F910F9108950F931F93282F462F01E16A
:1017900015E0C801622F0E94F802C8010E946E0382
:1017A0008DB79EB70A970FB6F8949EBF0FBE8DBF38
:1017B000EDB7FEB73196ADB7BEB712961C930E9338
:1017C000119780E891E09383828383EC90E0958386
:1017D000848385E595E09783868387E890E0918709
:1017E00080870E94F82B8DB79EB70A960FB6F894A3
:1017F0009EBF0FBE8DBFC8010E9452031F910F9163
:1018000008950F931F93282F462F01E115E0C8017B
:10181000622F0E94F802C8010E946E038DB79EB726
:101820000A970FB6F8949EBF0FBE8DBFEDB7FEB7F7
:101830003196ADB7BEB712961C930E93119787E8F9
:1018400091E0938382838091490590914A05A0910C
:101850004B05B0914C0584839583A683B78385E0BF
:1018600090E0918780870E94F82B8DB79EB70A96EB
:101870000FB6F8949EBF0FBE8DBFC8010E945203E1
:101880001F910F9108950F931F93282F462F01E169
:1018900015E0C801622F0E94F802C8010E946E0381
:1018A0008DB79EB70C970FB6F8949EBF0FBE8DBF35
:1018B000EDB7FEB73196ADB7BEB712961C930E9337
:1018C00011978FE891E093838283809161059091D5
:1018D0006205A0916305B091640584839583A68316
:1018E000B7838091650590916605A0916705B091D9
:1018F000680580879187A287B3870E94F82B8DB7F0
:101900009EB70C960FB6F8949EBF0FBE8DBFC80150
:101910000E9452031F910F9108950F931F93282F38
:10192000462F81E195E0622F0E94F80281E195E067
:101930000E946E0380916905823011F42FE105C089
:10194000833011F42FE001C02AE280916A05909162
:101950006B05883C910520F080912805811120E2DB
:101960008DB79EB708970FB6F8949EBF0FBE8DBF78
:10197000EDB7FEB7319601E115E0ADB7BEB71296EF
:101980001C930E9311978DE991E09383828380914C
:101990006C0584831582268317820E94F82B8DB7ED
:1019A0009EB708960FB6F8949EBF0FBE8DBFC801B4
:1019B0000E9452031F910F9108950F931F93282F98
:1019C000462F01E115E0C801622F0E94F802C8010C
:1019D0000E946E038DB79EB70A970FB6F8949EBF0C
:1019E0000FBE8DBFEDB7FEB73196ADB7BEB712963D
:1019F0001C930E93119783EA91E0938382838091E5
:101A00006D0590916E05A0916F05B091700584836E
:101A10009583A683B7838DE090E0918780870E94AD
:101A2000F82B8DB79EB70A960FB6F8949EBF0FBEDF
:101A30008DBFC8010E9452031F910F9108950F930B
:101A40001F93282F462F01E115E0C801622F0E9445
:101A5000F802C8010E946E038DB79EB70A970FB6B1
:101A6000F8949EBF0FBE8DBFEDB7FEB73196ADB7F0
:101A7000BEB712961C930E9311978BEA91E0938355
:101A8000828380913705909138059583848385E022
:101A900090E09783868386E090E0918780870E941C
:101AA000F82B8DB79EB70A960FB6F8949EBF0FBE5F
:101AB0008DBFC8010E9452031F910F9108950F938B
:101AC0001F93282F462F01E115E0C801622F0E94C5
:101AD000F802C8010E946E038DB79EB70A970FB631
:101AE000F8949EBF0FBE8DBFEDB7FEB73196ADB770
:101AF000BEB712961C930E9311978BEA91E09383D5
:101B000082838091390590913A059583848385E09D
:101B100090E09783868387E090E0918780870E949A
:101B2000F82B8DB79EB70A960FB6F8949EBF0FBEDE
:101B30008DBFC8010E9452031F910F910895CF924B
:101B4000DF92EF92FF920F931F93CF93DF93282F93
:101B5000462FC1E1D5E0CE01622F0E94F802CE01EE
:101B60000E946E03609171057091720580917305FA
:101B7000909174050E941D3720912D0530912E05FE
:101B800040912F05509130050E9450386B017C0127
:101B900020E03CE34CE156E40E9445381816C4F5B9
:101BA0008DB79EB70C970FB6F8949EBF0FBE8DBF32
:101BB0000DB71EB70F5F1F4FADB7BEB71296DC93C0
:101BC000CE93119783EB91E0F801938382838BE0AE
:101BD00090E095838483609134057091350580E0B1
:101BE00090E00E941B379B01AC01C701B6010E9427
:101BF0008236D80116966D937D938D939C93199799
:101C0000809133051A968C931A971B961C9221C0CB
:101C10008DB79EB70C970FB6F8949EBF0FBE8DBFC1
:101C2000EDB7FEB73196ADB7BEB71296DC93CE9343
:101C300011978DEB91E0938382838BE090E0958305
:101C40008483C682D782E086F186809132058287BE
:101C500013860E94F82BEDB7FEB73C960FB6F894AA
:101C6000FEBF0FBEEDBF81E195E00E945203DF9100
:101C7000CF911F910F91FF90EF90DF90CF9008953B
:101C8000EF92FF920F931F93282F462F11E1E12E21
:101C900015E0F12EC701622F0E94F802C7010E94D1
:101CA0006E030E94393428EE33E040E050E00E9499
:101CB0009D398091750590917605A0917705B09139
:101CC0007805281B390B4A0B5B0BCA01B9010E942E
:101CD0001B37609308037093090380930A03909362
:101CE0000B030E94EA368B019C018DB79EB70A97C1
:101CF0000FB6F8949EBF0FBE8DBFEDB7FEB73196FD
:101D0000ADB7BEB71296FC92EE92119787EC91E0B8
:101D100093838283C8016CE370E00E948A397583E3
:101D200064838AE390E097838683C8016CE370E064
:101D30000E948A39918780870E94F82B8DB79EB7C1
:101D40000A960FB6F8949EBF0FBE8DBFC7010E94C2
:101D500052031F910F91FF90EF900895CF93DF935F
:101D6000282F462FC1E1D5E0CE01622F0E94F80254
:101D7000CE010E946E0386EB96E068E773E00E9456
:101D8000A932813071F58DB79EB70E970FB6F894D2
:101D90009EBF0FBE8DBFEDB7FEB73196ADB7BEB7D4
:101DA0001296DC93CE93119781ED91E09383828319
:101DB000158214821782168287E190E091878087CE
:101DC00080917905992787FD90959387828785E291
:101DD00090E0958784870E94F82B8DB79EB70E966A
:101DE0002CC0ADB7BEB71C970FB6F894BEBF0FBEE0
:101DF000ADBFEDB7FEB731961296DC93CE93119737
:101E00008FED91E09383828387E190E095838483D3
:101E100080917A0590917B05A0917C05B0917D051C
:101E200086839783A087B18781E090E0938782873C
:101E30000E94F82B8DB79EB70C960FB6F8949EBFF4
:101E40000FBE8DBF81E195E00E945203DF91CF91DB
:101E500008950F931F93282F462F01E115E0C80125
:101E6000622F0E94F802C8010E946E038DB79EB7D0
:101E700008970FB6F8949EBF0FBE8DBFEDB7FEB7A3
:101E80003196ADB7BEB712961C930E93119789EE9B
:101E900091E09383828380917E058483158285E21D
:101EA00090E0978386830E94F82B8DB79EB70896A3
:101EB0000FB6F8949EBF0FBE8DBFC8010E9452039B
:101EC0001F910F910895BF92CF92DF92EF92FF92F0
:101ED0000F931F93282F462F81E195E0622F0E94D8
:101EE000F80281E195E00E946E0380912305813024
:101EF00009F03AC180916905823028F4DD24D39439
:101F0000BB24B39402C0DD24BB2460917F05709193
:101F1000800580918105909182052091290530915D
:101F20002A0540912B0550912C050E9450387B01C9
:101F30008C016091830570E0882777FD8095982F4C
:101F40000E941D379B01AC01C801B7010E947B367E
:101F500088234CF480918405813029F4CC24C394E7
:101F6000DD24D39401C0CC246091850570E080E02D
:101F700090E00E941B379B01AC01C801B7010E9491
:101F80004538181624F411E0DD24D39401C010E084
:101F90006091860570E080E090E00E941B3720E0B1
:101FA00030E040E251E40E9482369B01AC01609136
:101FB0006D0570916E0580916F05909170050E947E
:101FC0007B3687FD10C04091870580917905992760
:101FD00087FD9095242F30E08217930714F4442353
:101FE00011F440E003C041E0DD24D39420910C03C0
:101FF00030910D038091880590E0281739075CF433
:102000002D593F4F41F080918905882321F431E01B
:10201000DD24D39401C030E080918A058823C9F47F
:10202000DD2069F08B2D90E001968C0D911D810FC4
:10203000911D840F911D830F911D029739F481EF3B
:1020400091E090938C0580938B0503C081E0809391
:102050008A0580918A05813069F491E0B91639F4D6
:102060008EEF91E090938C0580938B0503C082E006
:1020700080938A0580918A05823069F4A1E0CA16AE
:1020800039F48BE092E090938C0580938B0503C02C
:1020900083E080938A0580918A05833061F4113052
:1020A00039F488E192E090938C0580938B0503C00E
:1020B00084E080938A0580918A05843061F4413000
:1020C00039F485E292E090938C0580938B0503C0F0
:1020D00085E080938A0520918A05253041F43130CE
:1020E00031F482E392E090938C0580938B052F5F0F
:1020F00020938A05B1E0DB1639F480918D05833099
:1021000018F410920E030AC080918E0590918F05ED
:10211000805B944018F481E080930E03263010F029
:1021200010928A0500D000D000D0EDB7FEB73196EE
:1021300081E195E0ADB7BEB712969C938E9311974F
:102140008DE791E09383828380918B0590918C053C
:10215000958384830E94F82B8DB79EB706960FB6A1
:10216000F8949EBF0FBE8DBF81E195E00E9452039F
:102170001F910F91FF90EF90DF90CF90BF90089547
:10218000CF92DF92EF92FF920F931F93282F462F4B
:1021900001E1C02E05E0D02EC601622F0E94F80298
:1021A000C6010E946E036091980570919905809117
:1021B0009A0590919B0520912D0530912E05409117
:1021C0002F05509130050E94503820E030E040E764
:1021D00052E40E9450382DEC3CEC4CEC5DE30E9444
:1021E00050387B018C0160919C0570919D05809118
:1021F0009E0590919F0526E636E646E65FE30E943F
:1022000050389B01AC01C801B7010E94B5356093FD
:102210009C0570939D0580939E0590939F052DB717
:102220003EB72E5030400FB6F8943EBF0FBE2DBFC4
:102230000DB71EB70F5F1F4FEDB7FEB7D282C18239
:102240002FE332E0F8013383228325E130E0358348
:10225000248320E030E040E251E40E9482360E9474
:10226000EA36882777FD8095982F0E941D3720E059
:1022700030E040E251E40E945038F80166837783F1
:1022800080879187809136058287138680E290E06F
:10229000958784870E94F82B2DB73EB7225F3F4F6A
:1022A0000FB6F8943EBF0FBE2DBFC6010E94520369
:1022B0001F910F91FF90EF90DF90CF900895EF92D4
:1022C000FF920F931F93282F462F81E1E82E85E080
:1022D000F82EC701622F0E94F802C7010E946E0308
:1022E0008DB79EB70A970FB6F8949EBF0FBE8DBFED
:1022F0000DB71EB70F5F1F4FEDB7FEB7F282E18239
:102300008BE492E0F801938382836091A40570913D
:10231000A505882777FD8095982F0E941D372AE014
:1023200037ED43E25CE30E945038F8016483758323
:10233000868397838EE090E0918780870E94F82BB8
:102340008DB79EB70A960FB6F8949EBF0FBE8DBF8D
:10235000C7010E9452031F910F91FF90EF900895C3
:10236000CF92DF92EF92FF920F931F93282F462F69
:1023700031E1E32E35E0F32EC701622F0E94F8020F
:10238000C7010E946E038DB79EB748970FB6F894A9
:102390009EBF0FBE8DBF0DB71EB70F5F1F4FEDB7AE
:1023A000FEB7F282E18283E592E0F80193838283B3
:1023B00080EB90E0958384836091A6057091A705DA
:1023C0008091A8059091A90520912D0530912E05A9
:1023D00040912F05509130050E945038F8016683D6
:1023E000778380879187809132058287138690E278
:1023F000C92ED12CD586C48681EB90E0978786873D
:102400006091AA057091AB058091AC059091AD05E6
:1024100020E030E048EC52E40E9482362091290509
:1024200030912A0540912B0550912C050E9450387F
:10243000F801608B718B828B938B80913105848B3B
:10244000158AD78AC68A0E94F82B8DB79EB7489600
:102450000FB6F8949EBF0FBE8DBFC7010E945203F6
:102460001F910F91FF90EF90DF90CF900895EF9222
:10247000FF920F931F93282F462F81E195E0622F43
:102480000E94F80281E195E00E946E03E090BF0592
:10249000F090C0050091C1051091C205C801B701B7
:1024A00020E030E040E050E00E947B3688234CF48E
:1024B000C801B70120E030E044EB53E40E94B53599
:1024C00002C0C801B7012091490530914A054091E9
:1024D0004B0550914C050E94B43520E030E044EBB0
:1024E00053E40E94823620E030E040E851E40E944C
:1024F00050380E94B33820E030E040E151E40E94BF
:10250000B5350E94EA366093C3058091C3058131D9
:1025100014F0805103C018161CF0805F8093C3052F
:1025200060913B0570913C0580913D0590913E0581
:102530002AE037ED43E25CE30E9450387B018C01D6
:1025400060913F0570914005809141059091420551
:1025500024EA30E74DE75FE30E9450389B01AC016D
:10256000C801B7010E94B53560933F0570934005DF
:1025700080934105909342058091C30561E00E94DC
:102580005A0A81E195E00E9452031F910F91FF903A
:10259000EF900895CF93DF93282F462FC1E1D5E028
:1025A000CE01622F0E94F802CE010E946E030E94AB
:1025B000393428EE33E040E050E00E949D39CA01F2
:1025C000B9012CE330E040E050E00E949D392DE756
:1025D00031E0623071058105910588F400D000D0AA
:1025E00000D0EDB7FEB73196ADB7BEB71296DC930B
:1025F000CE9311973383228384EC95E010C000D0F2
:1026000000D000D0EDB7FEB73196ADB7BEB7129689
:10261000DC93CE9311973383228380E193E09583FB
:1026200084830E94F82B8DB79EB706960FB6F89458
:102630009EBF0FBE8DBF81E195E00E945203DF91E6
:10264000CF910895CF92DF92EF92FF920F931F9355
:10265000282F462F81E195E0622F0E94F80281E148
:1026600095E00E946E03809189058630F1F08730F5
:1026700028F4843041F0853039F50AC08730D1F034
:10268000883011F51CC08091CD059091CE0504C015
:102690008091AF059091B0056AE070E00E947639B4
:1026A00070930D0360930C0315C08091B105909158
:1026B000B205F2CF8091B3059091B405EDCF809132
:1026C000B5059091B605E8CF8091CF0580930C03B6
:1026D00010920D030091D00510E060910C037091F1
:1026E0000D03601B710B882777FD8095982F0E9442
:1026F0001D376B017C016091D10570E0601B710B8F
:10270000882777FD8095982F0E941D379B01AC018B
:10271000C701B6010E94823620E030E048EC52E466
:102720000E9450380E94EA369B0170930D0360931B
:102730000C0389E08093D2058091880590E02817EA
:1027400039073CF480912805882319F080E28093B2
:10275000D2058DB79EB70C970FB6F8949EBF0FBEEB
:102760008DBFEDB7FEB7319681E195E0ADB7BEB74D
:1027700012969C938E9311978BE692E093838283BB
:102780008091D205848315823783268385E290E089
:1027900091878087138612860E94F82B8091D3053B
:1027A0002DB73EB7245F3F4F0FB6F8943EBF0FBE24
:1027B0002DBF882309F484C0863059F0873028F46F
:1027C000843039F0853089F404C0873011F08830C6
:1027D00061F48091CD059091CE056AE070E00E9491
:1027E000763970931A03609319030091D40510E0B1
:1027F0006091190370911A03601B710B80E090E0E7
:102800000E941B376B017C016091D50570E0601B55
:10281000710B882777FD8095982F0E941D379B01AB
:10282000AC01C701B6010E94823620E030E048ECDE
:1028300052E40E9450380E94EA369B0170931A03BA
:102840006093190380E48093D6058091D70590E0CA
:102850002817390738F480912805882319F080E279
:102860008093D6058DB79EB70C970FB6F8949EBF90
:102870000FBE8DBFEDB7FEB7319681E195E0ADB7E4
:10288000BEB712969C938E93119787E792E093833D
:1028900082838091D605848315823783268385E2DF
:1028A00090E091878087138612860E94F82B2DB7BF
:1028B0003EB7245F3F4F0FB6F8943EBF0FBE2DBF0B
:1028C00081E195E00E9452031F910F91FF90EF90DC
:1028D000DF90CF9008952F923F924F925F926F9228
:1028E0007F928F929F92AF92BF92CF92DF92EF92A0
:1028F000FF920F931F93DF93CF9300D0CDB7DEB736
:1029000041E1242E45E0342EC1016BE043E00E94FA
:10291000F802C1010E946E03C0900803D090090321
:10292000E0900A03F0900B0380902D0590902E0507
:10293000A0902F05B09030054090290550902A05B1
:1029400060902B0570902C058091320589839091C1
:1029500031059A83EDB7FEB7E854F0400FB6F8940E
:10296000FEBF0FBEEDBF0DB71EB70F5F1F4F328208
:10297000218284E892E0F8019383828388E090E0EA
:1029800095838483C701B60120E030E040E752E43C
:102990000E9482360E94EA36F801778366838AE3D2
:1029A00090E091878087C701B6010E94EA36DC017A
:1029B000CB016CE370E00E948A39F801938782872B
:1029C0008BE090E095878487C501B4012091ED05E7
:1029D0003091EE054091EF055091F0050E9450387E
:1029E000F80166877787808B918B8981828B138A28
:1029F0008FE890E0958B848BC501B4012091E105AF
:102A00003091E2054091E3055091E4050E94503871
:102A1000F801668B778B808F918F8981828F138EDF
:102A200083E190E0958F848FC301B2012091F1057D
:102A30003091F2054091F3055091F4050E94503811
:102A40000E94EA36F801778F668F8A8180A311A2EF
:102A500084E190E093A382A3C301B2012091F50524
:102A60003091F6054091F7055091F8050E945038D5
:102A70000E94EA36F80175A364A38A8186A317A28F
:102A800082E190E091A780A7C501B4012091F905EA
:102A90003091FA054091FB055091FC050E94503899
:102AA0000E94EA36F80173A762A7898184A715A658
:102AB0008DE190E097A786A7C301B2012091FD05A3
:102AC0003091FE054091FF05509100060E9450385C
:102AD0000E94EA36F80171AB60AB8A8182AB13AA1F
:102AE00087E190E095AB84AB80917A0590917B056E
:102AF000A0917C05B0917D0586AB97ABA0AFB1AF3F
:102B000081E090E093AF82AF83E090E095AF84AF37
:102B1000025C1F4F8091610590916205A091630551
:102B2000B0916405F80181939193A193B19384E0EE
:102B300090E0819391938091650590916605A091B5
:102B40006705B091680580839183A283B3830E9457
:102B5000F82B8DB79EB7885B9F4F0FB6F8949EBF3A
:102B60000FBE8DBFC1010E9452030F900F90CF91F5
:102B7000DF911F910F91FF90EF90DF90CF90BF906A
:102B8000AF909F908F907F906F905F904F903F900D
:102B90002F900895CF92DF92EF92FF920F931F93A1
:102BA000CF93DF93282F462FC1E1D5E0CE01622FCE
:102BB0000E94F802CE010E946E036091E1057091BF
:102BC000E2058091E3059091E40520912D05309177
:102BD0002E0540912F05509130050E9450386B0111
:102BE0007C0120E03CE34CE156E40E944538181695
:102BF000C4F58DB79EB70C970FB6F8949EBF0FBE65
:102C00008DBF0DB71EB70F5F1F4FADB7BEB7129682
:102C1000DC93CE93119783EB91E0F8019383828349
:102C20008FE890E095838483609134057091350539
:102C300080E090E00E941B379B01AC01C701B60108
:102C40000E948236D80116966D937D938D939C9346
:102C50001997809133051A968C931A971B961C929C
:102C600021C08DB79EB70C970FB6F8949EBF0FBECC
:102C70008DBFEDB7FEB73196ADB7BEB71296DC93F8
:102C8000CE9311978DEB91E0938382838FE890E050
:102C900095838483C682D782E086F186809132054F
:102CA000828713860E94F82BEDB7FEB73C960FB6CD
:102CB000F894FEBF0FBEEDBF81E195E00E94520384
:102CC000DF91CF911F910F91FF90EF90DF90CF9008
:102CD0000895EF92FF920F931F93282F462F81E1C3
:102CE00095E0622F0E94F80281E195E00E946E0358
:102CF000809101069091020664E670E00E947639A8
:102D000080E090E00E941B372091490530914A05F0
:102D100040914B0550914C050E94B4357B018C01CC
:102D200020E030E044EB53E40E94823620E030E0C3
:102D300040E851E40E94503820E030E040E85FE392
:102D40000E94B5350E94B3380E94EA36862F609300
:102D50000306161614F0805F03C061311CF0805129
:102D600080930306C801B70120E030E044E353E458
:102D70000E94453818164CF4C801B70120E030E035
:102D800044EB53E40E94B43515C0C801B70120E0FC
:102D900030E044E353EC0E947B3688234CF4C801B6
:102DA000B70120E030E044EB53E40E94B53502C0A7
:102DB000C801B7010E94EF36709344056093430544
:102DC0008091030662E00E945A0A81E195E00E9428
:102DD00052031F910F91FF90EF900895EF92FF9291
:102DE0000F931F93CF93DF93282F462F81E195E018
:102DF000622F0E94F80281E195E00E946E036091CB
:102E0000470570914805882777FD8095982F0E9487
:102E10001D372091490530914A0540914B0550914D
:102E20004C050E94B43520E030E044EB53E40E94AE
:102E3000823620E030E040E851E40E9450380E94A1
:102E4000B33820E030E040E85FE30E94B5350E94EF
:102E5000EA36862F60934D05161614F0805F03C086
:102E600061311CF0805180934D05E0904E05F0904B
:102E70004F050091500510915105C801B70120E0A0
:102E800030EC49E754E40E94453818162CF480E0F1
:102E900090ECA9E7B4E40EC0C801B70120E030EC23
:102EA00049E754EC0E947B36882364F480E090EC80
:102EB000A9E7B4EC80934E0590934F05A09350057D
:102EC000B09351058DB79EB742970FB6F8949EBF49
:102ED0000FBE8DBF0DB71EB70F5F1F4FC1E1D5E00D
:102EE000EDB7FEB7D283C18380EE92E0F801938301
:102EF000828387E590E09583848380E790E09783E1
:102F00008683809152058087118613861286609190
:102F100053057091540580E090E00E941B3720918A
:102F20002D0530912E0540912F05509130050E94BE
:102F30005038F801648775878687978780913205B6
:102F4000808B118A0E94F82B8DB79EB742960FB6E0
:102F5000F8949EBF0FBE8DBF80914D0560E00E942A
:102F60005A0A809145058A3029F08F3019F0873050
:102F700009F047C0EDB7FEB770970FB6F894FEBFE3
:102F80000FBEEDBF0DB71EB70F5F1F4F81E195E07C
:102F90009283818382EF92E0F8019383828380E2BF
:102FA00090E09583848388E590E09783868385E627
:102FB00090E09187808760914E0570914F058091D8
:102FC00050059091510520912D0530912E0540918D
:102FD0002F05509130050E945038F80162877387A1
:102FE0008487958780913205868717860E94F82B03
:102FF0008DB79EB740960FB6F8949EBF0FBE8DBF9B
:1030000010C000D000D0EDB7FEB7D283C18386EDEB
:1030100090E0948383830E94E72B0F900F900F9092
:103020000F9081E195E00E945203DF91CF911F91B3
:103030000F91FF90EF9008950F931F93282F462F25
:1030400001E115E0C801622F0E94F802C8010E9448
:103050006E0300D000D0EDB7FEB7128301838FED71
:1030600090E0948383830E94E72B0F900F900F9042
:103070000F90C8010E9452031F910F910895CF92A3
:10308000DF92EF92FF920F931F937C01D62EC72EF3
:1030900001E115E0C8016E2D4D2D0E94F802C80116
:1030A0000E946E0300D000D0EDB7FEB712830183FB
:1030B0008CEE90E0948383830E94E72B0F900F9017
:1030C0000F900F90C8010E945203C70101966D2D09
:1030D0007C2D0E94E0081F910F91FF90EF90DF90F0
:1030E000CF900895EF92FF920F931F93CF93DF93AA
:1030F000282F462FC1E1D5E0CE01622F0E94F802B1
:10310000CE010E946E0386EB96E062E773E00E94B8
:10311000A932882381F000D000D0EDB7FEB7D2836A
:10312000C18384E391E0948383830E94E72B0F9013
:103130000F900F900F908DB79EB70A970FB6F89427
:103140009EBF0FBE8DBF0DB71EB70F5F1F4F51E162
:10315000E52E55E0F52EEDB7FEB7F282E18287E865
:1031600091E0F8019383828360917F0570918005DF
:1031700080918105909182052091290530912A0541
:1031800040912B0550912C050E945038F801648322
:1031900075838683978380913105808711860E948D
:1031A000F82B8DB79EB70A960FB6F8949EBF0FBE48
:1031B0008DBFC7010E945203DF91CF911F910F91E4
:1031C000FF90EF900895EF92FF920F931F93CF938C
:1031D000DF93282F462FC1E1D5E0CE01622F0E9458
:1031E000F802CE010E946E0386EB96E060E773E082
:1031F0000E94A932882381F000D000D0EDB7FEB73D
:10320000D283C18386E391E0948383830E94E72B7A
:103210000F900F900F900F908DB79EB70A970FB633
:10322000F8949EBF0FBE8DBF0DB71EB70F5F1F4F27
:1032300061E1E62E65E0F62EEDB7FEB7F282E1829F
:1032400080E093E0F8019383828360919005709110
:1032500091058091920590919305209129053091D7
:103260002A0540912B0550912C050E945038F801F9
:103270006483758386839783809131058087118667
:103280000E94F82B8DB79EB70A960FB6F8949EBF92
:103290000FBE8DBFC7010E945203DF91CF911F91D6
:1032A0000F91FF90EF900895EF92FF920F931F936D
:1032B000CF93DF93282F462FC1E1D5E0CE01622FB7
:1032C0000E94F802CE010E946E0386EB96E06EE645
:1032D00073E00E94A932882381F000D000D0EDB7BE
:1032E000FEB7D283C18388E391E0948383830E94F5
:1032F000E72B0F900F900F900F908DB79EB70A9706
:103300000FB6F8949EBF0FBE8DBF0DB71EB70F5FEF
:103310001F4F71E1E72E75E0F72EEDB7FEB7F28291
:10332000E18280E093E0F8019383828360919405C9
:1033300070919505809196059091970520912D05A6
:1033400030912E0540912F05509130050E94503844
:10335000F801648375838683978380913205808723
:1033600011860E94F82B8DB79EB70A960FB6F89477
:103370009EBF0FBE8DBFC7010E945203DF91CF9148
:103380001F910F91FF90EF900895EF92FF920F938E
:103390001F93CF93DF93282F462FC1E1D5E0CE01B5
:1033A000622F0E94F802CE010E946E0386EB96E027
:1033B0006CE673E00E94A932882381F000D000D02F
:1033C000EDB7FEB7D283C1838AE391E09483838310
:1033D0000E94E72B0F900F900F900F908DB79EB724
:1033E0000A970FB6F8949EBF0FBE8DBF0DB71EB7DC
:1033F0000F5F1F4FE1E1EE2EE5E0FE2EEDB7FEB7C9
:10340000F282E18280E093E0F8019383828360910D
:10341000A0057091A1058091A2059091A30520912E
:103420002D0530912E0540912F05509130050E94B9
:103430005038F801648375838683978380913205C1
:10344000808711860E94F82B8DB79EB70A960FB61B
:10345000F8949EBF0FBE8DBFC7010E945203DF913B
:10346000CF911F910F91FF90EF900895AF92BF926F
:10347000CF92DF92EF92FF920F931F93282F462F48
:1034800081E195E0622F0E94F80281E195E00E94BF
:103490006E0380917E059091D805882309F4ADC014
:1034A000992319F481E08093D805A0909005B090FD
:1034B0009105C0909205D0909305C601B50120E01A
:1034C00030E040E050E00E947B36882309F448C099
:1034D0006091A4057091A505882777FD8095982FA8
:1034E0000E941D3720E030E040E251E40E94503855
:1034F0007B018C01C601B5012091290530912A0577
:1035000040912B0550912C050E9450389B01AC0135
:10351000C801B7010E9482362DEC3CEC4CEC5DE317
:103520000E9450387B018C016091D9057091DA05B9
:103530008091DB059091DC0526E636E646E65FE302
:103540000E9450389B01AC01C801B7010E94B535FB
:103550006093D9057093DA058093DB059093DC05C1
:10356000E090D905F090DA050091DB051091DC05BB
:10357000C801B70120E030E040E050E00E9445384B
:10358000181674F5C801B70120E03CE34CE156E49D
:103590000E947B36181624F18DB79EB70C970FB694
:1035A000F8949EBF0FBE8DBFEDB7FEB7319681E197
:1035B00095E0ADB7BEB712969C938E9311978DEBA5
:1035C00091E09383828386E190E095838483E68211
:1035D000F7820087118781E090E093878287DDC0C2
:1035E00000D000D081E195E0ADB7BEB712969C93B4
:1035F0008E9311978AE491E0F7C0992311F180919D
:10360000940590919505A0919605B09197058093AA
:10361000DD059093DE05A093DF05B093E005809172
:10362000E1059091E205A091E305B091E405809356
:10363000E5059093E605A093E705B093E8051092A1
:10364000D805E0909805F090990500919A051091A1
:103650009B05C801B7012DEC3CEC4CE45DEB0E94EE
:103660007B3688230CF0A4C0E0909405F09095057B
:1036700000919605109197056091DD057091DE052A
:103680008091DF059091E005A80197010E94B43573
:103690009B01AC01C801B7010E9482367B018C01FD
:1036A0006091E1057091E2058091E3059091E40558
:1036B0002091E5053091E6054091E7055091E80538
:1036C0000E94B4359B01AC01C801B7010E9450387B
:1036D00020912D0530912E0540912F0550913005F8
:1036E0000E9450386093E9057093EA058093EB05DA
:1036F0009093EC0520E03CE34CE156E40E94453811
:10370000181664F480E09CE3ACE1B6E48093E9052C
:103710009093EA05A093EB05B093EC05E090E905E2
:10372000F090EA050091EB051091EC05C801B70196
:1037300020E03CEC4CED56E40E947B36882309F4F3
:103740006AC0C801B70120E030E040E050E00E94CC
:10375000453818160CF05FC0EDB7FEB73C970FB6B2
:10376000F894FEBF0FBEEDBF319681E195E0ADB795
:10377000BEB712969C938E9311978DEB91E0938335
:10378000828388E190E095838483E682F7820087D4
:10379000118780913205828713860E94F82BEDB73E
:1037A000FEB73C960FB6F894FEBF0FBEEDBF33C018
:1037B000C801B7012DEC3CEC4CE45DEB0E944538B0
:1037C0008823BCF08091390590913A0597FF11C08C
:1037D00000D000D081E195E0ADB7BEB712969C93C2
:1037E0008E93119783E491E014969C938E93139794
:1037F0000CC000D000D081E195E0EDB7FEB7928318
:1038000081838CE391E0948383830E94E72B0F9064
:103810000F900F900F9081E195E00E9452031F914D
:103820000F91FF90EF90DF90CF90BF90AF900895F1
:103830000F931F9301E115E0C80165E045E00E9488
:10384000F802C8010E946E0300D000D0EDB7FEB7A9
:103850001283018381E591E0948383830E94E72BA7
:103860000F900F900F900F90C8010E9452031F916C
:103870000F9108950E94181C0E94B5070895EF92B9
:10388000FF920F931F93809184058130D9F5609149
:10389000940570919505809196059091970520E08B
:1038A00030E040E251E40E94453818160CF1609176
:1038B000900570919105809192059091930520E07B
:1038C00030E040E85FE30E94453818168CF08091A4
:1038D0007E05823068F48091710590917205A09107
:1038E0007305B091740585369105A105B10554F0B5
:1038F0000E94393460931B0370931C0380931D0353
:1039000090931E030E9439340E941B377B018C0167
:103910006091040670910506809106069091070655
:1039200020E030E849E055E40E94B5359B01AC0148
:10393000C801B7010E944538181694F480911F03FE
:10394000823039F081E195E00E94BB0382E08093F0
:103950001F0389E090E064E070E00E941C189AC2A6
:103960000E94393468557B418040904020911B0370
:1039700030911C0340911D0350911E0326173707F9
:103980004807590770F480911F03813039F081E1B5
:1039900095E00E94BB0381E080931F030E946B149B
:1039A00079C280917C0480FF08C06091D604809128
:1039B000D40490E070E00E94630F8091AE058430E3
:1039C00010F00E9465058091B805882321F480914C
:1039D0001F03882341F081E195E00E94BB03109210
:1039E000B80510921F038091B705823009F452C2C6
:1039F000A82FB0E0FD01EA58FB4F808181FF0BC08A
:103A0000FD01EE57FB4F6081A058BB4F8C9190E0B9
:103A100070E00E945F0D8091B705A82FB0E0FD0116
:103A2000EA58FB4F808182FF0BC0FD01EA57FB4F34
:103A30006081AC57BB4F8C9190E070E00E941F0DED
:103A40008091B705A82FB0E0FD01EA58FB4F8081B7
:103A500083FF0BC0FD01E657FB4F6081A857BB4FAA
:103A60008C9190E070E00E94DD0C8091B705A82F4A
:103A7000B0E0FD01EA58FB4F808185FF0BC0FD01DE
:103A8000E257FB4F6081A457BB4F8C9190E070E0F0
:103A90000E948D0C8091B705A82FB0E0FD01EA5877
:103AA000FB4F808187FF0BC0FD01EA56FB4F608111
:103AB000AC56BB4F8C9190E070E00E94430C80911B
:103AC000B705A82FB0E0FD01EA58FB4F808184FFC5
:103AD0000BC0FD01E656FB4F6081A856BB4F8C9191
:103AE00090E070E00E94AE0E8091B705A82FB0E084
:103AF000FD01EA58FB4F808186FF0BC0FD01EE56A9
:103B0000FB4F6081A057BB4F8C9190E070E00E940A
:103B100069168091B705A82FB0E0FD01E858FB4F6A
:103B2000808180FF0BC0FD01E256FB4F6081A456EF
:103B3000BB4F8C9190E070E00E94C30B8091B70561
:103B4000A82FB0E0FD01E858FB4F808181FF0BC03A
:103B5000FD01EE55FB4F6081A056BB4F8C9190E06C
:103B600070E00E94010C80910806813051F580912F
:103B7000B705A82FB0E0FD01E858FB4F808184FF16
:103B80000BC0FD01E655FB4F6081A855BB4F8C91E2
:103B900090E070E00E949F0D8091B705A82FB0E0E3
:103BA000FD01E858FB4F808183FF0BC0FD01EA5502
:103BB000FB4F6081AC55BB4F8C9190E070E00E9450
:103BC000AB0B8091B705A82FB0E0FD01E858FB4F83
:103BD000808187FF0BC0FD01EE54FB4F6081A05533
:103BE000BB4F8C9190E070E00E94400E8091520596
:103BF0008823A9F08091B705A82FB0E0FD01E8580F
:103C0000FB4F808186FF0BC0FD01E255FB4F6081B9
:103C1000A455BB4F8C9190E070E00E94EE1680910D
:103C2000B705A82FB0E0FD01E658FB4F808182FF69
:103C30000BC0FD01E654FB4F6081A854BB4F8C9133
:103C400090E070E00E94C5198091B705A82FB0E000
:103C5000FD01E658FB4F808187FF0BC0FD01E25458
:103C6000FB4F6081A454BB4F8C9190E070E00E94A8
:103C700054198091B705A82FB0E0FD01E658FB4F1D
:103C8000808183FF0BC0FD01EE53FB4F6081A05488
:103C9000BB4F8C9190E070E00E94E3188091B705D3
:103CA000A82FB0E0FD01E658FB4F808181FF0BC0DB
:103CB000FD01EA53FB4F6081AC53BB4F8C9190E008
:103CC00070E00E9472188091B705A82FB0E0FD0146
:103CD000E658FB4F808184FF0BC0FD01E653FB4F8C
:103CE0006081A853BB4F8C9190E070E00E94290F37
:103CF0008091B705A82FB0E0FD01E658FB4F808109
:103D000085FF0BC0FD01E253FB4F6081A453BB4F05
:103D10008C9190E070E00E943B0B8091B705A82F3A
:103D2000B0E0FD01E658FB4F808186FF0BC0FD012E
:103D3000EE52FB4F6081A053BB4F8C9190E070E03E
:103D40000E943F188091B705A82FB0E0FD01E6580A
:103D5000FB4F808180FF0BC0FD01EA54FB4F608167
:103D6000AC54BB4F8C9190E070E00E945F11809149
:103D7000B705A82FB0E0FD01E458FB4F808182FF1A
:103D80000BC0FD01E652FB4F6081A852BB4F8C91E6
:103D900090E070E00E9437128091B705A82FB0E044
:103DA000FD01E458FB4F808183FF0BC0FD01E2520F
:103DB000FB4F6081A452BB4F8C9190E070E00E9459
:103DC000C0108091B705A82FB0E0FD01E458FB4F6B
:103DD000808184FF0BC0FD01EE51FB4F6081A0523A
:103DE000BB4F8C9190E070E00E94B0118091B705BC
:103DF000A82FB0E0FD01E458FB4F808186FF0BC087
:103E0000FD01EA51FB4F6081AC51BB4F8C9190E0BA
:103E100070E00E9422138091B705A82FB0E0FD0149
:103E2000E458FB4F808187FF0BC0FD01E651FB4F3B
:103E30006081A851BB4F8C9190E070E00E94361ACF
:103E40008091B705A82FB0E0FD01E458FB4F8081B9
:103E500085FF0BC0FD01E251FB4F6081A451BB4FB8
:103E60008C9190E070E00E94CA128091B705A82F53
:103E7000B0E0FD01E258FB4F808182FF0BC0FD01E5
:103E8000EE50FB4F6081A051BB4F8C9190E070E0F1
:103E90000E94CA1580917C0485FF0EC0E091B70591
:103EA000F0E0DF01A251BB4F6C91E451FB4F8081E8
:103EB00090E070E00E94CA120E9436051F910F9197
:103EC000FF90EF900895CF93DF93EC0181E195E0AF
:103ED0000E94F402C817D9073CF081E195E00E94E6
:103EE000E902892B09F42397CE01DF91CF91089540
:103EF000EF92FF920F931F93CF93DF930091B7053B
:103F000010E08AEF90E0089F7001099FF00C189F65
:103F1000F00C1124C70188569F4F0E94A408F80195
:103F2000EA58FB4F882319F08081806102C08081AC
:103F30008F7E80838091B705C82FD0E0C701865659
:103F40009F4F0E94A408C856DB4F88838091B70515
:103F5000C82FD0E0C70184569F4F0E94A40890E06C
:103F60000E94631FC656DB4F88830091B70510E09F
:103F7000C70106960E94A408F801EA58FB4F88235F
:103F800019F08081826002C080818D7F8083809162
:103F9000B705C82FD0E0C70108960E94A408C058F2
:103FA000DB4F88838091B705C82FD0E0C7010A9600
:103FB0000E94A40890E00E94631FCE57DB4F8883C5
:103FC0000091B70510E0C7010C960E94A408F80103
:103FD000EA58FB4F882319F08081846002C08081F9
:103FE0008B7F80838091B705C82FD0E0C7010E96E4
:103FF0000E94A408CC57DB4F88838091B705C82F57
:10400000D0E0C70140960E94A40890E00E94631F80
:10401000CA57DB4F88830091B70510E0C70142966D
:104020000E94A408F801EA58FB4F882319F0808108
:10403000886002C08081877F80838091B705C82F08
:10404000D0E0C70144960E94A408C857DB4F88837C
:104050008091B705C82FD0E0C70146960E94A408FA
:1040600090E00E94631FC657DB4F88830091B7051D
:1040700010E0C7014E960E94A408F801EA58FB4FD1
:10408000882319F08081806202C080818F7D8083C7
:104090008091B705C82FD0E0C70180960E94A40880
:1040A000C457DB4F88838091B705C82FD0E0C70184
:1040B00082960E94A40890E00E94631FC257DB4FC3
:1040C00088830091B70510E0C70184960E94A40878
:1040D000F801EA58FB4F882319F08081806402C000
:1040E00080818F7B80838091B705C82FD0E0C70186
:1040F00086960E94A408C057DB4F88838091B7053D
:10410000C82FD0E0C70188960E94A40890E00E94C2
:10411000631FCE56DB4F88830091B70510E0C701BF
:104120008A960E94A408F801EA58FB4F882319F0E8
:104130008081806802C080818F7780838091B705FD
:10414000C82FD0E0C7018C960E94A408CC56DB4F44
:1041500088838091B705C82FD0E0C7018E960E9452
:10416000A40890E00E94631FCA56DB4F8883009129
:10417000B70510E0C701C0960E94A408F801E858EE
:10418000FB4F882319F08081816002C080818E7F7F
:1041900080838091B705C82FD0E0C701C2960E94E6
:1041A000A408C456DB4F88838091B705C82FD0E0A0
:1041B000C701C4960E94A40890E00E94631FC256E3
:1041C000DB4F88830091B70510E0C701C6960E94B7
:1041D000A408F801E858FB4F882319F08081826019
:1041E00002C080818D7F80838091B705C82FD0E089
:1041F000C701C8960E94A408C056DB4F88838091EF
:10420000B705C82FD0E0C701CA960E94A40890E065
:104210000E94631FCE55DB4F88830091B70510E0E5
:10422000C701885B9F4F0E94A408F801E858FB4F24
:10423000882319F08081806102C080818F7E808315
:104240008091B705C82FD0E0C701865B9F4F0E94C1
:10425000A408C855DB4F88838091B705C82FD0E0EC
:10426000C701845B9F4F0E94A40890E00E94631FD7
:10427000C655DB4F88830091B70510E0C7018E5B00
:104280009F4F0E94A408F801E858FB4F882319F0BB
:104290008081886002C08081877F80838091B7059C
:1042A000C82FD0E0C7018C5B9F4F0E94A408CC555B
:1042B000DB4F88838091B705C82FD0E0C7018A5BA8
:1042C0009F4F0E94A40890E00E94631FCA55DB4FD5
:1042D00088830091B70510E0C7018A5A9F4F0E945A
:1042E000A408F801E858FB4F882319F08081806406
:1042F00002C080818F7B80838091B705C82FD0E07A
:10430000C701885A9F4F0E94A408C455DB4F888379
:104310008091B705C82FD0E0C701865A9F4F0E94F1
:10432000A40890E00E94631FC255DB4F8883009170
:10433000B70510E0C70182569F4F0E94A408F801FC
:10434000E858FB4F882319F08081806802C0808183
:104350008F7780838091B705C82FD0E0C701805642
:104360009F4F0E94A408C055DB4F88838091B705FA
:10437000C82FD0E0C7018E559F4F0E94A40890E03F
:104380000E94631FCE54DB4F88830091B70510E075
:10439000C7018E599F4F0E94A408F801E658FB4FB1
:1043A000882319F08081816002C080818E7F8083A4
:1043B0008091B705C82FD0E0C7018C599F4F0E944C
:1043C000A408CC54DB4F88838091B705C82FD0E078
:1043D000C7018A599F4F0E94A40890E00E94631F62
:1043E000CA54DB4F88830091B70510E0C70182599A
:1043F0009F4F0E94A408F801E658FB4F882319F04C
:104400008081846002C080818B7F80838091B7052A
:10441000C82FD0E0C70180599F4F0E94A408C854FC
:10442000DB4F88838091B705C82FD0E0C7018E5835
:104430009F4F0E94A40890E00E94631FC654DB4F68
:1044400088830091B70510E0C70184579F4F0E94F1
:10445000A408F801E658FB4F882319F08081806892
:1044600002C080818F7780838091B705C82FD0E00C
:10447000C70182579F4F0E94A408C454DB4F888312
:104480008091B705C82FD0E0C70180579F4F0E9489
:10449000A40890E00E94631FC254DB4F8883009100
:1044A000B70510E0C7018E569F4F0E94A408F8017F
:1044B000E658FB4F882319F08081826002C080811A
:1044C0008D7F80838091B705C82FD0E0C7018C56BF
:1044D0009F4F0E94A408CC53DB4F88838091B7057F
:1044E000C82FD0E0C7018A569F4F0E94A40890E0D1
:1044F0000E94631FCA53DB4F88830091B70510E009
:10450000C7018C589F4F0E94A408F801E658FB4F42
:10451000882319F08081886002C08081877F808332
:104520008091B705C82FD0E0C7018A589F4F0E94DD
:10453000A408C054DB4F88838091B705C82FD0E012
:10454000C70188589F4F0E94A40890E00E94631FF3
:10455000CE53DB4F88830091B70510E0C701865822
:104560009F4F0E94A408F801E658FB4F882319F0DA
:104570008081806102C080818F7E80838091B705B9
:10458000C82FD0E0C70184589F4F0E94A408C85389
:10459000DB4F88838091B705C82FD0E0C7018258D0
:1045A0009F4F0E94A40890E00E94631FC653DB4FF8
:1045B00088830091B70510E0C70180589F4F0E9483
:1045C000A408F801E658FB4F882319F08081806227
:1045D00002C080818F7D80838091B705C82FD0E095
:1045E000C7018E579F4F0E94A408C453DB4F888396
:1045F0008091B705C82FD0E0C7018C579F4F0E940C
:10460000A40890E00E94631FC253DB4F888300918F
:10461000B70510E0C7018A579F4F0E94A408F80110
:10462000E658FB4F882319F08081806402C08081A6
:104630008F7B80838091B705C82FD0E0C701885752
:104640009F4F0E94A408C053DB4F88838091B70519
:10465000C82FD0E0C70186579F4F0E94A40890E062
:104660000E94631FCE52DB4F88830091B70510E094
:10467000C7018C559F4F0E94A408F801E458FB4FD6
:10468000882319F08081816002C080818E7F8083C1
:104690008091B705C82FD0E0C7018A559F4F0E946F
:1046A000A408CC52DB4F88838091B705C82FD0E097
:1046B000C70188559F4F0E94A40890E00E94631F85
:1046C000CA52DB4F88830091B70510E0C7018055BF
:1046D0009F4F0E94A408F801E458FB4F882319F06B
:1046E0008081846002C080818B7F80838091B70548
:1046F000C82FD0E0C7018E549F4F0E94A408C85213
:10470000DB4F88838091B705C82FD0E0C7018C5458
:104710009F4F0E94A40890E00E94631FC652DB4F87
:1047200088830091B70510E0C7018A549F4F0E940B
:10473000A408F801E458FB4F882319F080818860B1
:1047400002C08081877F80838091B705C82FD0E029
:10475000C70188549F4F0E94A408C452DB4F88832E
:104760008091B705C82FD0E0C70186549F4F0E94A3
:10477000A40890E00E94631FC252DB4F888300911F
:10478000B70510E0C70184549F4F0E94A408F801A8
:10479000E458FB4F882319F08081806102C080813A
:1047A0008F7E80838091B705C82FD0E0C7018254E7
:1047B0009F4F0E94A408C052DB4F88838091B705A9
:1047C000C82FD0E0C70180549F4F0E94A40890E0FA
:1047D0000E94631FCE51DB4F88830091B70510E024
:1047E000C701845A9F4F0E94A408F801E458FB4F68
:1047F000882319F08081806402C080818F7B808350
:104800008091B705C82FD0E0C701825A9F4F0E9400
:10481000A408CC51DB4F88838091B705C82FD0E026
:10482000C701805A9F4F0E94A40890E00E94631F16
:10483000CA51DB4F88830091B70510E0C7018E5342
:104840009F4F0E94A408F801E458FB4F882319F0F9
:104850008081806802C080818F7780838091B705D6
:10486000C82FD0E0C7018C539F4F0E94A408C851A5
:10487000DB4F88838091B705C82FD0E0C7018A53EA
:104880009F4F0E94A40890E00E94631FC651DB4F17
:1048900088830091B70510E0C70188539F4F0E949D
:1048A000A408F801E458FB4F882319F08081806246
:1048B00002C080818F7D80838091B705C82FD0E0B2
:1048C000C70186539F4F0E94A408C451DB4F8883C1
:1048D0008091B705C82FD0E0C70184539F4F0E9435
:1048E000A40890E00E94631FC251DB4F88830091AF
:1048F000B70510E0C70180529F4F0E94A408F8013D
:10490000E258FB4F882319F08081846002C08081C7
:104910008B7F80838091B705C82FD0E0C7018E516F
:104920009F4F0E94A408C051DB4F88838091B70538
:10493000C82FD0E0C7018C519F4F0E94A40890E07F
:104940000E94631FCE50DB4F8883DF91CF911F9170
:104950000F91FF90EF90089586EB96E064E773E087
:104960000E94A932882339F086EB96E064E773E071
:1049700040E00E94B03286EB96E06CEA73E00E9461
:10498000A932823039F086EB96E06CEA73E042E0BF
:104990000E94B03286EB96E06EEA73E00E94A93284
:1049A000843039F086EB96E06EEA73E044E00E94D2
:1049B000B03286EB96E060EB73E00E94A932813062
:1049C00039F086EB96E060EB73E041E00E94B03294
:1049D00008958F929F92AF92BF92CF92DF92FF92F3
:1049E0000F931F93CF93DF93F62E4901C82EDD243A
:1049F0008601000F111F5801AC0CBD1CE501CC0F46
:104A0000DD1FCC0FDD1FC857D94F18828B819C81C9
:104A10008430910509F48EC0853091055CF48230B4
:104A2000910509F443C0833091050CF0BFC0992370
:104A3000C4F44FC28730910509F443C18830910511
:104A400044F48530910509F4DEC0069709F041C2AF
:104A500007C18830910509F47AC1099709F039C274
:104A6000E7C18EEF681709F034C282E090E09C83C2
:104A70008B8380E790E0C89ED001C99EB00DD89E80
:104A8000B00D1124A85EB94F13961C92139788E3BA
:104A900090E0C89EF001C99EF00DD89EF00D112443
:104AA000EE0FFF1FE65EF94F6083A4C1E5E6E6174F
:104AB00088F489818F5F8983F501EE0FFF1FEE0F68
:104AC000FF1FE657F94F80818F5F8083188281E056
:104AD00090E02DC080E790E0C89EF001C99EF00DE7
:104AE000D89EF00D1124E85EF94F63831D8280810A
:104AF0008627282F2295207F282730E0522F442711
:104B0000C90163E0880F991F6A95E1F74827592783
:104B1000818190E04827592784E0359527958A952B
:104B2000E1F7422753275183408384E090E09C8340
:104B30008B83CFC18CE190E0C89EF001C99EF00D3F
:104B4000D89EF00D1124EE0FFF1FEE0FFF1FE45E45
:104B5000F94F608380E790E0C89EF001C99EF00D98
:104B6000D89EF00D1124E85EF94F80818627282F0A
:104B70002295207F282730E0522F4427C901B3E037
:104B8000880F991FBA95E1F748275927818190E04E
:104B900048275927A4E035952795AA95E1F742279C
:104BA00053275183408383E090E0C1CF80E790E0BA
:104BB000C89EF001C99EF00DD89EF00D1124E85E4C
:104BC000F94F658380818627282F2295207F28270B
:104BD00030E0522F4427C90163E0880F991F6A957E
:104BE000E1F748275927818190E04827592704E0B9
:104BF000359527950A95E1F742275327518340833E
:104C000085E090E094CF80E790E0C89EF001C99ED7
:104C1000F00DD89EF00D1124E85EF94F6683808177
:104C20008627282F2295207F282730E0522F4427DF
:104C3000C901B3E0880F991FBA95E1F748275927B2
:104C4000818190E048275927A4E035952795AA95BA
:104C5000E1F7422753275183408386E090E067CFF6
:104C600080E790E0C89EF001C99EF00DD89EF00D3F
:104C70001124E85EF94F678380818627282F2295CB
:104C8000207F282730E0522F4427C90163E0880F96
:104C9000991F6A95E1F748275927818190E04827B5
:104CA000592794E0359527959A95E1F742275327A0
:104CB000518340838381882309F446C087E090E0D4
:104CC00036CF6D81F80183E0EE0FFF1F8A95E1F783
:104CD000E01BF10B319603E0EE0FFF1F0A95E1F7A1
:104CE000E60FF11DE85EF94FF0826F5F6D8380E79C
:104CF00090E0C89EF001C99EF00DD89EF00D1124E1
:104D0000E85EF94F80818F25282F2295207F282764
:104D100030E0522F4427C901B3E0880F991FBA959C
:104D2000E1F748275927818190E048275927A4E0D7
:104D300035952795AA95E1F742275327518340835C
:104D40008381681709F0C5C088E090E0F0CE80E765
:104D500090E0C89ED001C99EB00DD89EB00D112420
:104D6000A85EB94F9C911796EC911797F0E0E85C1C
:104D7000FC4F80818927482F4295407F482750E08B
:104D8000342F2227CA0173E0880F991F7A95E1F723
:104D90002827392711968C91119790E028273927D9
:104DA00064E0559547956A95E1F7242735271196D4
:104DB0003C932E938F2D90E0307082179307F9F07B
:104DC000F501EE0FFF1FEE0FFF1FE657F94F808131
:104DD0008F5F8083188281E090E09C838B83FEEF5D
:104DE000FF1609F076C082E090E09C838B831396D7
:104DF0001C9213978FEF9FEF8D939C936AC089E06D
:104E000090E09C838B83F80183E0EE0FFF1F8A956F
:104E1000E1F7E01BF10B319603E0EE0FFF1F0A955F
:104E2000E1F78D81E80FF11DE85EF94FF08251C086
:104E3000262F30E080E790E0C89EB001C99E700D3B
:104E4000D89E700D1124685E794FFB01818190E03E
:104E500028173907E9F0F501EE0FFF1FEE0FFF1FCE
:104E6000E657F94F80818F5F8083188281E090E060
:104E70009C838B83FEEFFF1661F582E090E09C83BC
:104E80008B83EB011B828FEF9FEF9983888321C077
:104E900081E0888381E090E09C838B83F801B3E01C
:104EA000EE0FFF1FBA95E1F7E01BF10B3196A3E07F
:104EB000EE0FFF1FAA95E1F78D81E80FF11DE75E68
:104EC000F94FF082DA01FB0180E701900D928150E9
:104ED000E1F7D601AA0FBB1FAC0DBD1DAA0FBB1F6A
:104EE000AA0FBB1FA857B94F8C91813069F58CE18F
:104EF00090E0C89EF001C99EF00DD89EF00D1124DF
:104F0000EE0FFF1FEE0FFF1FE45EF94F8081169634
:104F10008C93169718968D919C911997892B21F453
:104F20001B961C921E921A97F601EE0FFF1FEC0DB6
:104F3000FD1DEE0FFF1FEE0FFF1FE857F94F808595
:104F40009185019691878087F601EE0FFF1FEC0D8A
:104F5000FD1DEE0FFF1FEE0FFF1FDF01A857B94F1A
:104F600016968C9116978F5FE4018E8318968D911B
:104F70009C91199799878887E657F94F80818A878E
:104F80001B8610828C91DF91CF911F910F91FF9022
:104F9000DF90CF90BF90AF909F908F900895AF9289
:104FA000BF92CF92DF92EF92FF920F931F93DF9306
:104FB000CF93CDB7DEB7CC57D0400FB6F894DEBF55
:104FC0000FBECDBF8E01035F1F4F5E010894A11C71
:104FD000B11CEE24E39425E1C22ED12CCC0EDD1EB3
:104FE000D7C184EF94E00E949B2CF82E8091090693
:104FF0008823E1F40E94393460527E44804090401E
:10500000A8F40E943934695873418040904070F090
:10501000FAE0FF1619F02DE0F21631F480910A063D
:105020008F5F80930A0602C010920A0680E06F2DFF
:10503000A80195010E94E924882309F4A5C10E94D2
:1050400039340E941B3760930406709305068093E1
:10505000060690930706E09209068C89813209F4CE
:1050600072C1823258F4813071F18130D0F08831D0
:1050700009F449C08E3109F087C1CBC08E3309F4E1
:10508000EBC08F3338F4833209F41DC18A3209F042
:105090007BC114C18A3409F474C0883A09F074C120
:1050A00038C1E0920B068A8980930C068B89809325
:1050B0000D06F801808580934505868580930E0650
:1050C00010920F0661C1F8016689778980E090E04F
:1050D0000E941B3720E030E04AE754E40E94823609
:1050E00060936D0570936E0580936F0590937005C6
:1050F000F801808D918D9093A5058093A40586A1DC
:105100008093790541C1F801608971898289938909
:105110000E941D3720E836E948E15BE40E948236B0
:1051200060936105709362058093630590936405B5
:10513000F80164897589868997890E941D3720E85E
:1051400036E948E15BE40E9482366093650570931E
:1051500066058093670590936805F601848D8093BA
:105160006905858D80936C05828D938D90930206E1
:10517000809301068489958990936B0580936A05D5
:1051800003C1F60180819181A281B38180937F0563
:1051900090938005A0938105B093820584819581C9
:1051A000A681B7818093900590939105A093920575
:1051B000B0939305F801608D718D882777FD8095F8
:1051C000982F0E941D376093490570934A0580937C
:1051D0004B0590934C05F801828D80937E05808964
:1051E0009189A289B3898093A0059093A105A0938A
:1051F000A205B093A305F60184859585A685B7859C
:105200008093980590939905A0939A05B0939B0578
:10521000BBC0F801608971898289938921EE3EE2E1
:1052200045E652E40E9450380E94EA3670933A05EF
:1052300060933905F801648575858685978521EE2B
:105240003EE245E652E40E9450380E94EA367093EE
:1052500038056093370598C0F801868D978D909337
:1052600048058093470580A191A1909354058093B0
:10527000530580899189A289B3898093A60590936B
:10528000A705A093A805B093A90584899589A68947
:10529000B7898093AA059093AB05A093AC05B09312
:1052A000AD05808D918DA28DB38D80934E05909329
:1052B0004F05A0935005B093510566C0F801808555
:1052C0008093520561C0F601828593859093CE0547
:1052D0008093CD05848595859093B0058093AF0527
:1052E000868597859093B2058093B105F801808DEE
:1052F000918D9093B4058093B305F60182899389CB
:105300009093B6058093B505F801858D8093CF0500
:105310003BC0F60180819181A281B3818093BF055A
:105320009093C005A093C105B093C2058481958177
:10533000A681B78180933B0590933C05A0933D05E2
:10534000B0933E0521C0F801608D718D828D938DE3
:105350000E941D372FE632E143E85AEB0E94503895
:105360009B01AC016091A0057091A1058091A205FF
:105370009091A3050E94B5356093100670931106B5
:1053800080931206909313068AE890E00E94A0345E
:1053900084EF94E00E946B2C181619060CF421CEB1
:1053A00080911406909115062B853C85820F931FE2
:1053B00090931506809314062B8180911606909188
:1053C0001706820F911D9093170680931606C458F6
:1053D000DF4F0FB6F894DEBF0FBECDBFCF91DF9188
:1053E0001F910F91FF90EF90DF90CF90BF90AF9003
:1053F000089586E061E00E94243508950F931F937D
:1054000086E061E00E94E53404EF14E0C80140E06A
:1054100051EE60E070E00E94092C1093B8060093F2
:10542000B7060E94F92981E195E00E943A040E94A2
:105430003A1C64EF71E080E090E00E9447340E94E3
:1054400011081092B70507C00E94781F8091B70518
:105450008F5F8093B7058091B7058230A8F31092D3
:10546000B70560ED77E080E090E00E94473484EF7C
:1054700094E00E94E82C1F910F9108952F923F9283
:105480004F925F926F927F928F929F92AF92BF9254
:10549000CF92DF92EF92FF920F931F93DF93CF9300
:1054A00000D000D0CDB7DEB76091A0057091A10506
:1054B0008091A2059091A3052091100630911106CC
:1054C00040911206509113060E94B43560939405E2
:1054D00070939505809396059093970580910806A3
:1054E000882349F580916905833009F006C18091D0
:1054F000610590916205A0916305B0916405809368
:105500009C0690939D06A0939E06B0939F06809163
:10551000650590916605A0916705B0916805809337
:10552000A0069093A106A093A206B093A30681E0E3
:1055300080930806E2C0813009F0DFC0E0909C064D
:10554000F0909D0600919E0610919F06C801B7013C
:105550009F7725E33AEF4EE85CE30E9450380E94C3
:105560007F3669837A838B839C83C801B70120913E
:1055700061053091620540916305509164050E9478
:10558000B4351B012C019F7720EC3BE649ED57E435
:105590000E9450385B016C016091A0067091A106D9
:1055A0008091A2069091A306209165053091660531
:1055B00040916705509168050E94B4353B014C014C
:1055C0009F7720EC3BE649ED57E40E945038298153
:1055D0003A814B815C810E9450387B018C01C6016D
:1055E000B501A60195010E9450385B016C01C8010C
:1055F000B701A80197010E9450389B01AC01C60178
:10560000B5010E94B5350E94D7380E94EA366093F2
:10561000710570937205809373059093740560E033
:1056200070E080E89FE329813A814B815C810E9490
:1056300082369B01AC01C201B1010E94503897FA39
:10564000909497F89094A40193010E94283620EE3C
:105650003EE245E652E40E94503820E030E044EB60
:1056600052E40E94B5350E94EA369B01AC0197FFD7
:1056700004C028593E4F4F4F5F4FCA01B901645BC8
:1056800070408040904097FF06C0CA01B9016C5439
:105690007F4F8F4F9F4F0E941D37209149053091BA
:1056A0004A0540914B0550914C050E94B4350E942B
:1056B000EA3697FF04C068597E4F8F4F9F4F0E9474
:1056C0001D3720E030E044EB53E40E94823620E0B6
:1056D00030E040E851E40E9450380E94B33820E0A6
:1056E00030E040E85FE30E94B5350E94EF366093FA
:1056F0004605613110F0109246050F900F900F9003
:105700000F90CF91DF911F910F91FF90EF90DF905D
:10571000CF90BF90AF909F908F907F906F905F9051
:105720004F903F902F9008950E94AA0881E195E044
:105730000E943E2A0E943F1C0E943E060E94AC240A
:1057400008950E9439342091940630919506409135
:1057500096065091970628583F4F4F4F5F4F261798
:1057600037074807590760F40E943934609394065C
:105770007093950680939606909397060E94942BBB
:105780000E94CF2708956EBD0DB407FEFDCF8EB5E4
:1057900008958DE061E00E94E5348BE061E00E94B5
:1057A000E5348CE060E00E94E5348AE061E00E942C
:1057B000E5341CBC80E58CBD8DB58EB5089584EABA
:1057C00096E00E94C92B08958FEF9FE70895DF931D
:1057D000CF93CDB7DEB7FE0139968D819E8161E012
:1057E0004F8158859F010E94882ECF91DF910895A7
:1057F000DF93CF93CDB7DEB7FE0139968D819E81C1
:1058000060E04F8158859F010E94882ECF91DF91E3
:1058100008950F931F93DC01ED91FC910288F389A9
:10582000E02D20E030E000E010E009951F910F919D
:1058300008958F92AF92CF92EF92FF920F931F93A2
:10584000DF93CF93CDB7DEB7FC011382128288EECF
:1058500093E0A0E0B0E084839583A683B78380E6DD
:1058600094E0918380835587448737872687118BFF
:10587000008BF38AE28AC48AA58A868A70E0CB010B
:1058800023E0880F991F2A95E1F79C012B55394F8A
:10589000308F278B8355994F928F818F81E090E0D5
:1058A00002C0880F991F6A95E2F72091B506282B50
:1058B0002093B506CF0140E051EE60E070E00E9419
:1058C000092CCF91DF911F910F91FF90EF90CF9016
:1058D000AF908F900895FC01838D882319F42FEFEA
:1058E0003FEF0DC00788F08DE02D2081318182814E
:1058F0009381281B390B8481958128233923C90181
:105900000895FC01838D882319F42FEF3FEF11C018
:10591000018CF28DE02D2081318182819381281BC1
:10592000390B2095309584819581282339232F5F69
:105930003F4FC9010895FC01838D882361F0A78939
:10594000B08D2D913C91119712968D919C9113974A
:105950002817390721F44FEF5FEFCA010895129617
:105960008D919C9113971696ED91FC911797E80FE6
:10597000F91F408112968D919C9113970196149670
:105980002D913C9115978223932313969C938E938C
:10599000129750E0E2CFFC01838D882351F00788F5
:1059A000F08DE02D20813181828193812817390784
:1059B00021F42FEF3FEFC901089582819381068082
:1059C000F781E02DE80FF91F8081282F30E0F3CF19
:1059D000DC015796ED91FC915897828193819183D8
:1059E00080835996ED91FC915A97808191819383A0
:1059F00082830895DC015B968C915B978823A9F1E3
:105A00005996ED91FC915A97208131812F5F3F4F3C
:105A100084819581282339235C968C915C97882317
:105A200029F08281938128173907F9F082819381C7
:105A300028173907D9F3808191810680F781E02DFD
:105A4000E80FF91F60835996ED91FC915A973183C5
:105A500020835296ED91FC915397808156969C91AC
:105A6000892B808321E030E002C020E030E0C901D2
:105A70000895CF93DF93EC011B821A828A819B8168
:105A8000998388831D821C828E819F81009721F0DB
:105A90000E9459331F821E82DF91CF9108950F9388
:105AA0001F938C01DC015296ED91FC91539720815C
:105AB00056968C91569755969C915597892B809523
:105AC0008223808357968D919C9158970E94392DFF
:105AD000F801818D928D0E94392DD8015B961C9220
